:1000000099C00000B2C00000B0C00000AEC0000047
:10001000ACC00000AAC00000A8C00000A6C000003C
:10002000A4C00000A2C00000A0C00000E9C40000FD
:100030008EC500009AC0000098C0000096C0000065
:1000400094C0000092C0000090C000008EC000006C
:100050008CC000008AC0000088C00000B9C2000047
:1000600084C0000082C0000080C000007EC000008C
:100070007CC0000026034C005500460041002000D3
:100080004B006500790062006F006100720064003F
:100090002000440065006D006F000000180344005C
:1000A000650061006E002000430061006D00650086
:1000B0007200610000000403090409022900010123
:1000C00000C03209040000020301010009211101EE
:1000D0000001223F000705810308000A070502030B
:1000E00008000A1201100100000008EB0342200181
:1000F000000102000105010906A10175019508052D
:100100000719E029E715002501810295017508818D
:1001100003950575010508190129059102950175D9
:100120000391039506750815002565050719002933
:10013000658100C011241FBECFEFD2E0DEBFCDBF6E
:1001400011E0A0E0B1E0ECE9FEE002C005900D9204
:10015000A430B107D9F722E0A4E0B1E001C01D92BC
:10016000A23AB207E1F7FAD197C64ACF9BB19063A2
:10017000809598239BB90895E0919302F0919402A1
:10018000819192E0E139F90769F0F0939402E093EC
:1001900093022FB7F8949091950291509093950205
:1001A0002FBF089521E132E030939402209393020F
:1001B000F0CFCF93DF9384B7877F84BF0FB6F894D7
:1001C000A895809160008861809360001092600023
:1001D0000FBE87E690E09093CD008093CC0086E040
:1001E0008093CA001092C800C9ECD0E088E18883EF
:1001F000539A5A9A8AB180638AB98BB180638BB95A
:10020000F4D35F9A579A188280E98883DF91CF915F
:10021000089580E1ABDF81E080930201089580E2E0
:10022000A5CFCF9342E061EC81E04CD2C82F42E0F1
:1002300060EC82E047D29091E20094609093E200FB
:10024000882319F080E1C11101C080E2CF918ECFE7
:100250008091040290910502009729F001979093F4
:100260000502809304020895CF93DF93FC0188E098
:10027000DF011D928A95E9F710828091E4018535AE
:1002800011F481E080838091E501853519F4808146
:10029000826080838091E601853519F480818460D5
:1002A00080838091E701853519F48081886080839F
:1002B0008091E801853519F4808180618083809187
:1002C000E901853519F48081806280838091EA019B
:1002D000853519F48081806480838091EB018535B8
:1002E00019F4808180688083A4E0B1E080E090E030
:1002F0002D91253529F4EF01C90FD11D8A839F5F08
:100300008F5F963019F4DF91CF910895803881F78F
:10031000FACF80FF02C080E329CF80E1FDCF1F9399
:10032000CF93DF93CDB7DEB728970FB6F894DEBF33
:100330000FBECDBF80919B02833009F44BC078F48F
:10034000813069F1823009F48BC028960FB6F89499
:10035000DEBF0FBECDBFDF91CF911F9108958A30D0
:1003600009F463C08B3009F44AC0893071F7809179
:100370009A02813251F78091E800877F8093E800EC
:100380008091E80082FF22C01091F1008091E80086
:100390008B778093E800BDD1812FBBDFD6CF8091D2
:1003A0009A02813A91F6CE0101965EDF8091E800D3
:1003B000877F8093E80068E070E0CE0101962CD240
:1003C0008091E8008B778093E800BFCF8EB38111D6
:1003D000D7CFBBCF80919A02813A09F0B6CF8091F6
:1003E000E800877F8093E800809102018093F1000C
:1003F0008091E8008E778093E8008BD1A6CF809122
:100400009A02813209F0A1CF8091E800877F809322
:10041000E8007FD181E020919C0230919D02232B46
:1004200009F480E08093020190CF80919A0281329A
:1004300009F08BCF8091E800877F8093E80069D135
:1004400080919C0290919D0236E0969587953A9511
:10045000E1F78C7F9370909301018093000175CF39
:1004600080919A02813A09F070CF8091E800877FED
:100470008093E80080910001909101019695879505
:1004800096958795B3CFCF93DF93CDB7DEB72897F7
:100490000FB6F894DEBF0FBECDBFCE010196E4DEED
:1004A00048E050E0BE016F5F7F4F86E092E0E7D406
:1004B00021E0892B09F420E0809100019091010155
:1004C000009759F04091040250910502452B29F400
:1004D000909305028093040221E081E08093E9007B
:1004E0008091E80085FF17C02223A9F088E0FE0173
:1004F0003196A6E0B2E001900D928A95E1F750E0C6
:1005000040E068E070E0CE0101964CD18091E800B7
:100510008E778093E80028960FB6F894DEBF0FBE62
:10052000CDBFDF91CF91089582E08093E900809163
:10053000E80082FF0CC08091E80085FF03C0809135
:10054000F100E7DE8091E8008B778093E800089562
:100550008EB3843011F497DFE7CF08952ADE2FB7EA
:10056000F89481E192E090939202809391029093AB
:100570009402809393022FBF80E2F8DD78948FB7C6
:10058000F894C09195028FBFC13610F0C15028F485
:10059000C33038F4DDDF5CD4F2CFEEDD809310029F
:1005A000F5CFDFEFDC0FE8DD8093100281110EC084
:1005B000E3DD80930F02C350DFDD80930E02E091F4
:1005C0000F02F0E0EC5FFE4F8083E2CFCD2FE0CF53
:1005D0001F920F920FB60F9211242F938F939F9318
:1005E000EF93FF938091CE009EB39430D9F4E091C5
:1005F0009102F09192028083E0919102F091920237
:10060000CF01019622E081399207B1F090939202D6
:10061000809391029FB7F894809195028F5F8093A9
:1006200095029FBFFF91EF919F918F912F910F9016
:100630000FBE0F901F90189581E192E09283818305
:10064000E9CF292F33272330310521F158F4213008
:10065000310599F022303105C1F090E080E030E0C2
:1006600020E00FC02132310541F122323105A9F7D6
:100670008FE390E025EF30E004C082E190E023EECC
:1006800030E0FA0131832083089589E290E02AEB7B
:1006900030E0F7CF99278130910561F028F002977B
:1006A000E1F6E4E7F0E002C0E6EBF0E0849190E0F0
:1006B0009F01E7CFECE9F0E0F9CF89E090E02CEC86
:1006C00030E0DFCF8093E900EBEEF0E080818160E5
:1006D0008083EDEEF0E010826093EC004083809127
:1006E000EE00881F8827881F08951092F40080E08C
:1006F0008093E9001092F0001092E8001092ED0053
:100700009091EB009E7F9093EB008F5F853081F797
:10071000089580919A0287FF11C08091E80082FFBE
:1007200006C08091E8008B778093E80003C08EB309
:100730008111F3CF08958EB38823E1F38091E8000F
:1007400080FFF9CF8091E8008E77EECF85E690911B
:10075000EC0090FF06C09091E80090FF06C080E09A
:1007600008959091E80092FDFACF9EB39923A1F0ED
:100770009EB3953099F09091EB0095FD11C090914A
:10078000E10092FFE4CF9091E1009B7F9093E10024
:100790008150E9F684E0089582E0089583E00895A9
:1007A00081E00895CF92DF92EF92FF920F931F9313
:1007B000CF937C018B016A01C9DFC82F8823C1F068
:1007C0008C2FCF911F910F91FF90EF90DF90CF90E2
:1007D0000895F60109958130D1F4C5E0F1CFF70114
:1007E00080818093F10001501109C70101967C01BD
:1007F0000115110529F38091E80085FDF0CF809166
:10080000E8008E778093E800C114D10411F79EDFD1
:10081000882371F3C82FD4CF2091A0023091A10278
:1008200026173707A0F06115710529F42091E8001B
:100830002E772093E80030E06115710551F43111F5
:1008400008C08091E80082FF30C080E00895B901BF
:10085000F2CF2091E80023FD30C02091E80022FD76
:10086000F0CF2EB3222359F12EB3253021F1209160
:10087000E80020FFE1CF2091F200FC01CF016115DB
:10088000710511F0283050F031E0283009F030E0E7
:100890002091E8002E772093E800CECF81918093BD
:1008A000F100615071092F5FE9CF8EB3882339F0D1
:1008B0008EB3853031F683E0089581E0089582E0BB
:1008C00008952091A0023091A10226173707A0F0C9
:1008D0006115710529F42091E8002E772093E80036
:1008E00030E06115710551F4311108C08091E800C4
:1008F00082FF31C080E00895B901F2CF2091E80075
:1009000023FD31C02091E80022FDF0CF2EB3222339
:1009100061F12EB3253029F12091E80020FFE1CFCD
:100920002091F200FC01CF016115710511F0283012
:1009300050F031E0283009F030E02091E8002E77C7
:100940002093E800CECF84918093F100615071092B
:100950002F5F3196E8CF8EB3882339F08EB3853080
:1009600029F683E0089581E0089582E0089542D059
:1009700044D01EBA109298021092970210929602DA
:1009800084E089BD89B5826089BD09B400FEFDCFD0
:100990008091D800982F9F779093D800806880939B
:1009A000D800809163008E7F809363008091D8008F
:1009B0008F7D8093D8008091E0008E7F8093E0004F
:1009C0008091E1008E7F8093E1008091E200816060
:1009D0008093E2008091E100877F8093E100809125
:1009E000E20088608093E2000895C1DF81E0809397
:1009F000990208951092E20008951092E10008957E
:100A00001F920F920FB60F9211242F933F934F9383
:100A10005F936F937F938F939F93AF93BF93EF9366
:100A2000FF938091E10080FF1BC08091E20080FF76
:100A300017C08091E1008E7F8093E1008091E200F9
:100A40008E7F8093E2008091E20080618093E200DB
:100A50008091D80080628093D80019BC1EBADFDB79
:100A60008091E10084FF27C08091E20084FF23C0D1
:100A700084E089BD89B5826089BD09B400FEFDCFDF
:100A80008091D8008F7D8093D8008091E1008F7E87
:100A90008093E1008091E2008F7E8093E20080915C
:100AA000E20081608093E2008091980281114DC044
:100AB00081E08EBBAEDB8091E10083FF27C0809197
:100AC000E20083FF23C08091E100877F8093E100F3
:100AD00082E08EBB109298028091E1008E7F80931D
:100AE000E1008091E2008E7F8093E2008091E2003D
:100AF00080618093E200F9DD42E060E080E0E2DDC9
:100B00008091F00088608093F000A1D18091E10095
:100B100082FF0AC08091E20082FF06C08091E1005E
:100B20008B7F8093E10094DBFF91EF91BF91AF91B8
:100B30009F918F917F916F915F914F913F912F91F5
:100B40000F900FBE0F901F90189584E0B2CF1F92A8
:100B50000F920FB60F921124FF920F931F932F93B2
:100B60003F934F935F936F937F938F939F93AF9335
:100B7000BF93CF93DF93EF93FF93C9EED0E08881CB
:100B80008770F82E188200EF10E0F8018081877FCF
:100B9000808378941DD0F8941882F8018081886051
:100BA0008083F882FF91EF91DF91CF91BF91AF9158
:100BB0009F918F917F916F915F914F913F912F9175
:100BC0001F910F91FF900F900FBE0F901F901895DF
:100BD0001F93CF93DF93CDB7DEB7AA970FB6F894E4
:100BE000DEBF0FBECDBFEAE9F2E08091F100819354
:100BF00022E0E23AF207C9F780919A0290919B02B3
:100C00009A3008F022C1E92FF0E0E85FF94F31C1D6
:100C1000120637062507370625079206AE06250772
:100C200000070C07803881F0823809F00EC18091EE
:100C30009E0287708093E9008091EB0085FB8827F6
:100C400080F91092E90006C0809196029091970277
:100C5000911182609091E800977F9093E8008093D3
:100C6000F1001092F1008091E8008E772EC0282FBD
:100C70002D7F09F0EAC08823D1F0823051F18091B4
:100C8000E80083FF0AC08091EB0080628093EB0054
:100C90008091E800877F8093E800AA960FB6F894C9
:100CA000DEBF0FBECDBFDF91CF911F910895809120
:100CB0009C02813021F7933009F080E08093970205
:100CC0001092E9008091E800877F8093E80021DDA1
:100CD000D6CF80919C028111F3CF80919E028770C4
:100CE00071F28093E9002091EB0020FFC8CF933090
:100CF00031F48091EB0080628093EB00E1CF909122
:100D0000EB0090619093EB0021E030E001C0220FF6
:100D10008A95EAF72093EA001092EA008091EB00AE
:100D20008860EACF811191C010919C028091E80007
:100D3000877F8093E800EDDC8091E80080FF0AC0A7
:100D4000812F8F7792E009F093E09EBB80688093BB
:100D5000E30095CF8EB38111EFCF91CF80588230D1
:100D600008F073C080919C0290919D028C3D23E01D
:100D7000920799F583E08A838AE289834FB7F894D2
:100D8000DE01139620E03EE051E2E32FF0E05093C5
:100D90005700E49120FF03C0E295EF703F5FEF70D2
:100DA00080E38E0F8A3310F087E38E0F90E08D93EF
:100DB0009D932F5F243149F74FBF8091E800877FD3
:100DC0008093E8006AE270E0CE01019625DD809113
:100DD000E8008B778093E80052CFAE014F5F5F4F02
:100DE00060919E022EDCBC01892B09F448CF9091C2
:100DF000E800977F9093E80089819A8162DDE7CFD0
:100E0000803819F58091E800877F8093E800809111
:100E100098028093F10027CF811117C090919C0216
:100E2000923008F02CCF8091E800877F8093E80013
:100E3000909398026EDC80919802811104C083E047
:100E40008EBBEFD91CCF84E0FBCF69DA18CF0895B1
:100E5000CF938EB3882359F0C091E900C7701092E8
:100E6000E9008091E80083FDB3DEC093E900CF91F3
:100E70000895EE0FFF1F0590F491E02D0994FB01FA
:100E8000DC0104C08D910190801921F44150504043
:0C0E9000C8F7881B990B0895F894FFCF59
:040E9C00F40101005C
:00000001FF
