:100000008AC00000A3C00000A1C000009FC0000083
:100010009DC000009BC0000099C0000097C0000078
:1000200095C0000093C0000091C0000003C4000010
:10003000A8C400008BC0000089C0000087C0000079
:1000400085C0000083C0000081C000007FC00000A8
:100050007DC000007BC0000079C00000CDC1000061
:1000600075C0000073C0000071C000006FC00000C8
:100070006DC0000018034100720064007500690043
:100080006E006F00200055006E006F00000032030C
:10009000410072006400750069006E006F0020006E
:1000A00028007700770077002E006100720064005E
:1000B000750069006E006F002E0063006300290068
:1000C00000000403090409023E00020100C03209D5
:1000D00004000001020201000524000110042402B2
:1000E000060524060001070582030800FF09040134
:1000F00000020A0000000705040240000107058312
:10010000024000011201100102000008EB034B2025
:1001100001000102DC0111241FBECFEFD2E0DEBFDF
:10012000CDBF11E0A0E0B1E0E4E6FFE002C0059041
:100130000D92A631B107D9F722E0A6E1B1E001C0E6
:100140001D92AF32B207E1F72CD00AC759CF84B75E
:10015000877F84BF0FB6F894A8958091600088616E
:1001600080936000109260000FBE87E690E090934D
:10017000CD008093CC0086E08093CA001092C80026
:1001800088E18093C900539A5A9A8AB180638AB9E8
:100190008BB180638BB943D384E085BD5F9A579A56
:1001A0000895D5DF2FB7F8948EE991E090931F0260
:1001B00080931E0290932102809320022FBF2FB7BD
:1001C000F89489E191E090939A018093990190933A
:1001D0009C0180939B012FBF7894CEE9D1E08C01E4
:1001E00083E0E82E9FB7F894809122029FBF803869
:1001F00001F180E091E062D697FD1BC0E0911E0204
:10020000F0911F02808380911E0290911F0201963F
:1002100022E08E31920709F465C090931F0280930B
:100220001E029FB7F894809122028F5F8093220272
:100230009FBF8FB7F894F0909D018FBFA89903C01E
:1002400080E68F1520F5A89A80919D01882319F0EA
:100250005D98E0921601FA948FEFF81248C08091F1
:100260001601882341F08091160181508093160178
:10027000811101C05D9A80911701882341F080911E
:100280001701815080931701811101C05C9A9FB7BB
:10029000F894809122029FBF8823F9F0E091200218
:1002A000F0912102919122E0EE31F20709F43DC074
:1002B000F0932102E09320022FB7F894809122025C
:1002C0008150809322022FBF8091C80085FFFCCF10
:1002D0009093CE005C98E092170180E091E0E0D529
:1002E000D1D480CFD0931F02C0931E029ACFE09149
:1002F0009B01F0919C01619121E0E939F20781F0C5
:10030000F0939C01E0939B019FB7F89480919D012D
:10031000815080939D019FBF80E091E06FD59BCF7E
:1003200010939C0100939B01EFCFD0932102C093C7
:100330002002C2CF80E091E01DC580E091E0B4C40E
:100340000F931F93CF938C01FC018489C0E381300C
:1003500021F0C0E2823009F0C0E0F80183898230E8
:1003600009F4C860F80185898730E9F18830E9F13E
:10037000863009F4C2601092C9001092C800109231
:10038000CA00F80127853089418952892115F1EE8B
:100390003F074105510559F1CA01B9019695879565
:1003A0007795679560587B47814E9F4FB1D5215017
:1003B00031093093CD002093CC00C093CA00F801DE
:1003C00087859089A189B2898115914EA105B105D2
:1003D00089F082E08093C80088E98093C900CF91BA
:1003E0001F910F910895C460C6CFC660C4CF20E1AD
:1003F00030E0DFCF80E0EECF1F920F920FB60F926A
:1004000011242F938F939F93EF93FF938091CE00AE
:100410009EB39430D9F4E0919901F0919A018083D0
:10042000E0919901F0919A01CF01019621E089397B
:100430009207B1F090939A01809399019FB7F89435
:1004400080919D018F5F80939D019FBFFF91EF91F0
:100450009F918F912F910F900FBE0F901F90189525
:1004600089E191E092838183E9CFFC01858580FF5A
:1004700002C05F9808955F9A0895292F332722308C
:10048000310571F02330310581F021303105A1F4BF
:1004900082E190E024E031E0FA0131832083089585
:1004A0008EE390E026EC30E0F7CF9927813091057C
:1004B00071F038F0029771F090E080E030E020E0D9
:1004C000EBCFE2ECF0E0849190E09F01E5CFEEE825
:1004D000F0E0F9CFE4E7F0E0F6CFAC0128E030E05F
:1004E00080E02417350718F08295807F08958F5F8C
:1004F000220F331FF6CF8093E900EBEEF0E080810E
:1005000081608083EDEEF0E010826093EC00408328
:100510008091EE00881F8827881F08951092F400AC
:1005200080E08093E9001092F0001092E8001092B1
:10053000ED009091EB009E7F9093EB008F5F8530F4
:1005400081F708958091270287FF11C08091E8000C
:1005500082FF06C08091E8008B778093E80003C09B
:100560008EB38111F3CF08958EB38823E1F3809188
:10057000E80080FFF9CF8091E8008E77EECF85E626
:100580009091EC0090FF06C09091E80090FF06C0AB
:1005900080E008959091E80092FDFACF9EB39923F0
:1005A000A1F09EB3953099F09091EB0095FD11C0AC
:1005B0009091E10092FFE4CF9091E1009B7F9093B6
:1005C000E1008150E9F684E0089582E0089583E037
:1005D000089581E0089520912D0230912E02261772
:1005E0003707A0F06115710529F42091E8002E77F6
:1005F0002093E80030E06115710551F4311108C015
:100600008091E80082FF30C080E00895B901F2CF08
:100610002091E80023FD30C02091E80022FDF0CFBA
:100620002EB3222359F12EB3253021F12091E80079
:1006300020FFE1CF2091F200FC01CF01611571058F
:1006400011F0283050F031E0283009F030E02091EE
:10065000E8002E772093E800CECF81918093F100BF
:10066000615071092F5FE9CF8EB3882339F08EB3C3
:10067000853031F683E0089581E0089582E00895A1
:1006800020912D0230912E0226173707A0F0611518
:10069000710529F42091E8002E772093E80030E0DE
:1006A0006115710551F4311108C08091E80082FF95
:1006B00031C080E00895B901F2CF2091E80023FD18
:1006C00031C02091E80022FDF0CF2EB3222361F14A
:1006D0002EB3253029F12091E80020FFE1CF2091B1
:1006E000F200FC01CF016115710511F0283050F0C6
:1006F00031E0283009F030E02091E8002E77209397
:10070000E800CECF84918093F100615071092F5F92
:100710003196E8CF8EB3882339F08EB3853029F631
:1007200083E0089581E0089582E0089561157105E0
:1007300029F42091E8002B772093E80061157105DA
:1007400031F48091E80080FF20C080E0089520917E
:10075000E80023FD22C02EB3222309F12EB3253059
:10076000D1F02091E80022FFE9CF2091F20022236E
:1007700001F39C012F5F3F4F4091F100FC0140834A
:1007800061507109C90189F7D4CF8EB3882339F03C
:100790008EB38530B1F683E0089581E0089582E05C
:1007A000089542D044D01EBA10922502109224021D
:1007B0001092230284E089BD89B5826089BD09B4A5
:1007C00000FEFDCF8091D800982F9F779093D8009E
:1007D00080688093D800809163008E7F809363004F
:1007E0008091D8008F7D8093D8008091E0008E7F2B
:1007F0008093E0008091E1008E7F8093E100809102
:10080000E20081608093E2008091E100877F809325
:10081000E1008091E20088608093E2000895C1DFEA
:1008200081E08093260208951092E20008951092CC
:10083000E10008951F920F920FB60F9211242F938B
:100840003F934F935F936F937F938F939F93AF9358
:10085000BF93EF93FF938091E10080FF1BC08091D5
:10086000E20080FF17C08091E1008E7F8093E1005D
:100870008091E2008E7F8093E2008091E2008061AF
:100880008093E2008091D80080628093D80019BCE8
:100890001EBAF7D18091E10084FF27C08091E20069
:1008A00084FF23C084E089BD89B5826089BD09B415
:1008B00000FEFDCF8091D8008F7D8093D80080917D
:1008C000E1008F7E8093E1008091E2008F7E809333
:1008D000E2008091E20081608093E2008091250235
:1008E00081114DC081E08EBBCCD18091E10083FFAE
:1008F00027C08091E20083FF23C08091E100877FC1
:100900008093E10082E08EBB109225028091E1008D
:100910008E7F8093E1008091E2008E7F8093E200E1
:100920008091E20080618093E200F8DD42E060E0C7
:1009300080E0E1DD8091F00088608093F000A1D13B
:100940008091E10082FF0AC08091E20082FF06C030
:100950008091E1008B7F8093E10093D1FF91EF9133
:10096000BF91AF919F918F917F916F915F914F91C7
:100970003F912F910F900FBE0F901F90189584E01C
:10098000B2CF1F920F920FB60F921124FF920F93C6
:100990001F932F933F934F935F936F937F938F9307
:1009A0009F93AF93BF93CF93DF93EF93FF93C9EEE2
:1009B000D0E088818770F82E188200EF10E0F801EF
:1009C0008081877F808378941DD0F8941882F80105
:1009D000808188608083F882FF91EF91DF91CF91D1
:1009E000BF91AF919F918F917F916F915F914F9147
:1009F0003F912F911F910F91FF900F900FBE0F907D
:100A00001F9018951F93CF93DF93CDB7DEB7AA97AA
:100A10000FB6F894DEBF0FBECDBFE7E2F2E08091E3
:100A2000F100819322E0EF32F207C9F780912702AB
:100A3000909128029A3008F022C1E92FF0E0EE5D93
:100A4000FA4F88C22C0551053F0651053F06AC05FB
:100A5000C8053F061A062606803881F0823809F05C
:100A60000EC180912B0287708093E9008091EB008A
:100A700085FB882780F91092E90006C08091230247
:100A800090912402911182609091E800977F909359
:100A9000E8008093F1001092F1008091E8008E77D9
:100AA0002EC0282F2D7F09F0EAC08823D1F0823094
:100AB00051F18091E80083FF0AC08091EB008062D1
:100AC0008093EB008091E800877F8093E800AA96EE
:100AD0000FB6F894DEBF0FBECDBFDF91CF911F914F
:100AE000089580912902813021F7933009F080E048
:100AF000809324021092E9008091E800877F809320
:100B0000E80020DDD6CF809129028111F3CF8091BA
:100B10002B02877071F28093E9002091EB0020FF97
:100B2000C8CF933031F48091EB0080628093EB006A
:100B3000E1CF9091EB0090619093EB0021E030E0E9
:100B400001C0220F8A95EAF72093EA001092EA008A
:100B50008091EB008860EACF811191C01091290249
:100B60008091E800877F8093E800ECDC8091E800CA
:100B700080FF0AC0812F8F7792E009F093E09EBB3F
:100B800080688093E30095CF8EB38111EFCF91CF32
:100B90008058823008F073C08091290290912A0217
:100BA0008C3D23E0920799F583E08A838AE289836A
:100BB0004FB7F894DE01139620E03EE051E2E32FB8
:100BC000F0E050935700E49120FF03C0E295EF70EE
:100BD0003F5FEF7080E38E0F8A3310F087E38E0F54
:100BE00090E08D939D932F5F243149F74FBF809103
:100BF000E800877F8093E8006AE270E0CE0101960A
:100C0000EADC8091E8008B778093E80052CFAE0158
:100C10004F5F5F4F60912B0230DCBC01892B09F4E0
:100C200048CF9091E800977F9093E80089819A815E
:100C300027DDE7CF803819F58091E800877F809322
:100C4000E800809125028093F10027CF811117C021
:100C500090912902923008F02CCF8091E800877F94
:100C60008093E800909325026DDC8091250281112C
:100C700004C083E08EBB5EDB1CCF84E0FBCF5DDB7A
:100C800018CF0895CF938EB3882359F0C091E9000F
:100C9000C7701092E9008091E80083FDB3DEC09335
:100CA000E900CF9108950895CF93DF932091E80054
:100CB00023FF11C0FC01408120912B0230912C02B6
:100CC0004217130641F4EC01809128028132C1F0F1
:100CD00028F4803249F1DF91CF9108958232C1F139
:100CE0008332C9F7809127028132A9F78091E80009
:100CF000877F8093E80060912902CF01D4DF37C05D
:100D000080912702813A39F78091E800877F8093AC
:100D1000E80067E070E0CF010F965DDC8091E800AD
:100D20008B778093E800D7CF80912702813299F6A4
:100D30008091E800877F8093E80067E070E0CF0152
:100D40000F96F4DCCE01FCDA8091E8008E77E9CFD3
:100D500080912702813209F0BECF8091E800877F21
:100D60008093E800809129028587CF017EDBDF91A7
:100D7000CF91E8CB0F931F93CF93DF93EC01FC014E
:100D80003D9689E0DF011D928A95E9F78A819B8172
:100D90002C8110E0211114E009819FDB812B482F69
:100DA000426061E8802FA7DB882311F18E819F814B
:100DB000288510E0211114E00D818FDB812B482F55
:100DC000426060E8802F97DB882391F08A859B85BD
:100DD0002C8510E0211114E0C9857FDB812B482F81
:100DE000426061EC8C2FDF91CF911F910F9183CBEB
:100DF00080E0DF91CF911F910F9108950F931F9382
:100E0000CF932EB3243009F5FC0107851089218981
:100E10003289012B022B032BC1F0C62F81818093D5
:100E2000E9008091E80085FF07C0C093F10080E0F1
:100E3000CF911F910F9108958091E8008E77809354
:100E4000E8009DDB882389F3F3CF82E0F1CF2EB356
:100E5000243021F5FC014785508961897289452B31
:100E6000462B472BD9F081818093E9008091F200D5
:100E7000811102C080E008959091E8008091E8001F
:100E80008E778093E80095FDF5CF79DB811107C05F
:100E90009091E8009E779093E800089582E008958D
:100EA0002EB3243051F4FC01478550896189728941
:100EB000452B462B472B09F0CACF08952EB324307B
:100EC00019F08FEF9FEF0895FC01478550896189E4
:100ED0007289452B462B472BA1F385818093E9002E
:100EE0008091E80082FFEDCF8091F200882369F0C5
:100EF0008091F10090E02091F200211105C0209135
:100F0000E8002B772093E80008958FEF9FEFF3CF51
:100F1000A1E21A2EAA1BBB1BFD010DC0AA1FBB1FFD
:100F2000EE1FFF1FA217B307E407F50720F0A21B6F
:100F3000B30BE40BF50B661F771F881F991F1A94DC
:100F400069F760957095809590959B01AC01BD0106
:100F5000CF010895EE0FFF1F0590F491E02D099445
:040F6000F894FFCF33
:100F640000034000000440000002080000000000EC
:060F740000000000000077
:00000001FF
